{"abi":[{"type":"function","name":"postMessage","inputs":[{"name":"message","type":"string","internalType":"string"}],"outputs":[],"stateMutability":"nonpayable"},{"type":"event","name":"NewMessage","inputs":[{"name":"sender","type":"address","indexed":true,"internalType":"address"},{"name":"message","type":"string","indexed":false,"internalType":"string"},{"name":"timestamp","type":"uint256","indexed":false,"internalType":"uint256"}],"anonymous":false}],"bytecode":{"object":"0x6080604052348015600e575f5ffd5b5061022b8061001c5f395ff3fe608060405234801561000f575f5ffd5b5060043610610029575f3560e01c80636630f88f1461002d575b5f5ffd5b61004760048036038101906100429190610108565b610049565b005b3373ffffffffffffffffffffffffffffffffffffffff167f4bba44446aea2a9f27db36c95346239fd392bf3a497349684a3890d0d764077d838342604051610093939291906101c5565b60405180910390a25050565b5f5ffd5b5f5ffd5b5f5ffd5b5f5ffd5b5f5ffd5b5f5f83601f8401126100c8576100c76100a7565b5b8235905067ffffffffffffffff8111156100e5576100e46100ab565b5b602083019150836001820283011115610101576101006100af565b5b9250929050565b5f5f6020838503121561011e5761011d61009f565b5b5f83013567ffffffffffffffff81111561013b5761013a6100a3565b5b610147858286016100b3565b92509250509250929050565b5f82825260208201905092915050565b828183375f83830152505050565b5f601f19601f8301169050919050565b5f61018c8385610153565b9350610199838584610163565b6101a283610171565b840190509392505050565b5f819050919050565b6101bf816101ad565b82525050565b5f6040820190508181035f8301526101de818587610181565b90506101ed60208301846101b6565b94935050505056fea2646970667358221220b066473cb3402f6ee89ce427f2d6411df62e478038963d1c5573983d3b29917064736f6c634300081c0033","linkReferences":{}},"methodIdentifiers":{"postMessage(string)":"6630f88f"},"id":15}